:1003A6001204E91204487C057D2E757001757100F2
:1003B60075720075733D75740F7B007A00795B1258
:1003C600033D7C057D39E4F570F571757200757332
:1003D6004C75740FFB7A00796312033D7C057D161C
:1003E60075700275710075720075731075740F7BE8
:0C03F600007A00790812033DB2A180FCDF
:0B052E00B2A17FF47E011204CD80F525
:0B053900B2A07FE87E031204CD80F525
:0C051600E4F53C053CE53CB464F980F4DD
:03000000020522D4
:0C052200787FE4F6D8FD7581770203A60F
:0D0508007401A807088002C333D8FC421F0D
:0105150022C3
:0E04F9007401A807088002C333D8FCF4521F18
:0105070022D1
:10044800E4FFEF75F008A42427F8E4F608F6EF7542
:10045800F008A42421F8E4F6EF75F008A42422F8A3
:100468007600087600087600EF75F008A42425F8D1
:10047800E4F6EF75F008A42426F8E4F60FBF03C2EB
:0304880075200BD1
:01048B00224E
:10029F008B758A768977900005120037FF12050853
:1002AF00AB75AA76A9779000061200BAFFAEF09050
:1002BF00000512003775F008A42427F8A60608A633
:1002CF000712001EFF90000512003775F008A424D6
:1002DF0021F8A6079000011200F2C003C002C0016E
:1002EF00AB75AA76A97790000512003775F008A4B0
:1002FF002422F8D001D002D003A60308A60208A634
:10030F0001AB75AA76A977900004120037FF900011
:10031F000512003775F008A42425F8A607900005EC
:0E032F00120037FF75F008A42426F8A6072256
:10048C00E4FEEE75F008A42427F808E616187001AF
:10049C0016E6FC08E6D39400EC648094805019EEC8
:1004AC0075F008A42426F8E6FF120508EE75F0088E
:1004BC00A42427F8E4F608F60EBE02C67F02020555
:0104CC000827
:1004CD00E52075F008A42427F8A60608A607E52060
:0C04DD0075F008A42426F8E6FF0204F9DC
:10000300E4FFE51FA807088002C313D8FC30E00310
:070013008F39220FBF03EB40
:01001A0022C3
:10033D008B6B8A6C896DE573120086AB71AA72A9FD
:10034D0073ED120086AB6BAA6CA96D74011200647B
:10035D00AB71AA72A973900001EC120098AB6BAA55
:10036D006CA96D740D120064AB71AA72A973C003F0
:10037D00C002C001AB6BAA6CA96D900001120122E5
:10038D00AB6BAA6CA96D900004E5741200989000F7
:09039D0005E57012009802029FB0
:1004E900D2AF438910758DFC758B18D28ED2AB2291
:03001B00020402DA
:10040200C0E0C0F0C083C082C0D075D000C000C0C0
:1004120001C002C003C004C005C006C007758DFC40
:10042200758B18C2AF12048C1201BDD007D006D052
:1004320005D004D003D002D001D000D0D0D082D0D9
:0604420083D0F0D0E0328F
:1001BD00C2AF120003E520640B7020853181D0079A
:1001CD00D006D005D004D003D002D001D000D0830A
:1001DD00D082D0D0D0F0D0E0752002E52075F008A7
:1001ED00A42427F8E6FE08E64E604EC0E0C0F0C03D
:1001FD00D0C082C083C000C001C002C003C004C013
:10020D0005C006C007E52075F008A42421F8A681D5
:10021D00E53975F008A42421F8E6F581D007D0065C
:10022D00D005D004D003D002D001D000D083D0822D
:10023D00D0D0D0F0D0E0853920E539C39520504E8F
:10024D00C0E0C0F0C0D0C082C083C000C001C002F9
:10025D00C003C004C005C006C007E52075F008A4A2
:10026D002421F8A681E53975F008A42421F8E6F5D6
:10027D0081D007D006D005D004D003D002D001D054
:10028D0000D083D082D0D0D0F0D0E0853920D2AF4D
:02029D0032220B
:10001E00BB010689828A83E0225002E722BBFE02E0
:09002E00E32289828A83E4932213
:10003700BB010CE58229F582E5833AF583E022507E
:1000470006E92582F8E622BBFE06E92582F8E222C8
:0D005700E58229F582E5833AF583E49322E2
:10006400BB010989828A83F8E028F022500327F72C
:1000740022BBFE05F8E328F3228A838982F8E493FD
:02008400282230
:10008600BB010689828A83F0225002F722BBFE0159
:02009600F32253
:10009800F8BB010DE58229F582E5833AF583E8F09E
:1000A800225006E92582C8F622BBFE05E92582C84A
:0200B800F22232
:1000BA00BB0110E58229F582E5833AF583E0F5F084
:1000CA00A3E0225009E92582F886F008E622BBFE61
:1000DA000AE92582F8E2F5F008E222E5832AF583A7
:0800EA00E993F5F0A3E993226C
:1000F200BB010DE58229F582E5833AF58302018D84
:100102005007E92582F802017BBBFE07E92582F848
:1001120002019FE58229F582E5833AF5830201B166
:10012200BB0120E58229F582E5833AF583D0F0D040
:10013200E0F8D0E0F9D0E0FAD0E0FBE8C0E0C0F0AF
:100142000201965018E92582F8D083D082D0E0F9D6
:10015200D0E0FAD0E0FBC082C083020184BBFE186B
:10016200E92582F8D083D082D0E0F9D0E0FAD0E05D
:09017200FBC082C0830201A82237
:09017B00E6FB08E6FA08E6F922A9
:09018400EBF608EAF608E9F622A0
:09018D00E0FBA3E0FAA3E0F92273
:09019600EBF0A3EAF0A3E9F0226A
:09019F00E2FB08E2FA08E2F92291
:0901A800EBF208EAF208E9F22288
:0C01B100E493FB740193FA740293F922AA
:00000001FF
